:020000040800F2
:1000000080060020E101000811040008AF03000889
:100010000D04000893020008C90600080000000053
:1000200000000000000000000000000011050008B2
:1000300097020008000000001304000835060008BD
:10004000FB010008FB010008FB010008FB010008A0
:10005000FB010008FB010008FB010008FB01000890
:10006000FB010008FB010008FB010008FB01000880
:10007000FB010008FB010008FB010008FB01000870
:10008000FB010008FB010008FB010008FB01000860
:10009000FB010008FB010008FB010008FB01000850
:1000A000FB010008FB010008FB010008FB01000840
:1000B000FB010008FB010008FB010008FB01000830
:1000C000FB010008FB010008FB010008FB01000820
:1000D000FB010008FB010008FB010008FB01000810
:1000E000FB010008FB010008FB010008FB01000800
:1000F000FB010008FB010008FB010008FB010008F0
:10010000FB010008FB010008FB010008FB010008DF
:10011000FB010008FB010008FB010008FB010008CF
:10012000FB010008FB010008FB010008FB010008BF
:10013000FB010008FB010008FB010008FB010008AF
:1001400000F002F800F03CF80AA090E8000C8244AD
:100150008344AAF10107DA4501D100F031F8AFF28A
:10016000090EBAE80F0013F0010F18BFFB1A43F095
:1001700001031847AC090000CC090000103A24BF65
:1001800078C878C1FAD8520724BF30C830C144BFFC
:1001900004680C607047000000230024002500263E
:1001A000103A28BF78C1FBD8520728BF30C148BFDA
:1001B0000B6070471FB500F0ADFC1FBD10B510BD42
:1001C00000F031F81146FFF7F5FF00F055FC00F0A4
:1001D0004FF803B4FFF7F2FF03BC00F053F8000040
:1001E0000948804709480047FEE7FEE7FEE7FEE7CB
:1001F000FEE7FEE7FEE7FEE7FEE7FEE70448054907
:10020000054A064B704700004506000841010008FA
:100210008000002080060020800200208002002054
:10022000704770477047754600F028F8AE460500E5
:100230006946534620F00700854618B020B5FFF701
:10024000DDFFBDE820404FF000064FF000074FF003
:1002500000084FF0000B21F00701AC46ACE8C009E4
:10026000ACE8C009ACE8C009ACE8C0098D467047ED
:100270000446AFF300802046FFF7ABFF004870470D
:100280001C00002001491820ABBEFEE7260002003A
:10029000704700BFFEE770472DE9F0410246002598
:1002A0000026002000230024002791F803C00CF052
:1002B0000F0591F803C00CF0100CBCF1000F03D037
:1002C00091F802C04CEA050591F800C0BCF1000F9E
:1002D00031D0146800202BE04FF0010C0CFA00F331
:1002E000B1F800C00CEA03069E4220D183004FF013
:1002F0000F0C0CFA03F7BC4305FA03FC4CEA0404A8
:1003000091F803C0BCF1280F06D14FF0010C0CFA94
:1003100000FCC2F814C00AE091F803C0BCF1480F19
:1003200005D14FF0010C0CFA00FCC2F810C0401CC3
:100330000828D1D31460B1F800C0BCF1FF0F34DD40
:10034000546800202EE000F1080C4FF0010808FA74
:100350000CF3B1F800C00CEA03069E4221D18300E1
:100360004FF00F0C0CFA03F7BC4305FA03FC4CEA00
:10037000040491F803C0BCF1280F05D100F1080C6A
:1003800008FA0CF8C2F8148091F803C0BCF1480FC9
:1003900007D100F1080C4FF0010808FA0CF8C2F878
:1003A0001080401C0828CED35460BDE8F08100BF07
:1003B000FEE7000010B5044600200749086021460A
:1003C000064800F076F800BF0221044800F068F803
:1003D0000028F9D010BD00009801214200300140F2
:1003E00010B504460120074908602146064800F080
:1003F00060F800BF0221044800F052F80028F9D04C
:1004000010BD0000980121420030014000BFFEE70E
:100410007047704729B1064A92690243044B9A61BA
:1004200004E0034A92698243014B9A6170470000DD
:100430000010024000B585B04FF44040ADF8000018
:100440004FF48270ADF802000020ADF804000220E5
:10045000ADF806000120ADF808004002ADF80A0032
:100460000020ADF80C00ADF80E000720ADF810002C
:100470006946044800F01FF80121024800F004F822
:1004800005B000BD0030014021B1028842F04002B9
:10049000028004E002884FF6BF731A400280704762
:1004A0000246002013890B400BB1012000E0002020
:1004B00070478181704710B50022028802F44152D2
:1004C0008B8903F4004323B1838843F480738380D2
:1004D00003E0838823F4807383800B884C88234354
:1004E0008C882343CC8823430C8923434C892343A2
:1004F0008C89C4F30E042343CC8923431A4302801E
:10050000838B4FF2FF74234083830B8A038210BDD9
:10051000704710B500F002F810BD00001CB50020B7
:10052000019000903648006840F4803034490860FB
:1005300000BF3348006800F4003000900198401C70
:100540000190009818B90198B0F5A06FF1D141F26F
:10055000883000F0BBF82A48006800F4003010B181
:100560000120009001E0002000900098012845D172
:1005700023484068224948600846406820F460509B
:1005800048600846406840F40050486008464068AB
:1005900020F4E06048600846406840F480604860AD
:1005A00008464068174908401549486008464068B1
:1005B00015490843124948600846006840F08070B9
:1005C000086000BF0E48006800F000700028F9D0F5
:1005D0000B48406820F0030009494860084640681D
:1005E00040F00200486000BF0548406800F00C0081
:1005F0000828F9D14FF4FA7000F068F81CBD00002B
:1006000000100240FFFFC01F000021A0042808D1F5
:100610004FF0E021096941F004014FF0E02211613F
:1006200007E04FF0E021096921F004014FF0E022DA
:100630001161704702480068401C0149086070471A
:100640000000002010B51A48006840F470001849F6
:1006500008601848006840F0010016490860084624
:100660004068154908401349486008460068134926
:100670000840104908600846006820F4802008609F
:10068000084640680E4908400A4948600846006B21
:100690000C490840074908634FF41F008860FFF7C2
:1006A00038FF4FF0006002498039086010BD00003B
:1006B00088ED00E0001002400C00FFE8FFFFF6FEAE
:1006C000FFFF001700FFFEFE00BFFEE7002100E075
:1006D000491C8142FCD3704708B501210420FFF773
:1006E00099FE0120ADF8000003208DF802001020D3
:1006F0008DF8030069460248FFF7CEFD08BD0000F3
:100700000008014038B5044601210420FFF782FEAD
:1007100001210803FFF77EFEA020ADF800000320B2
:100720008DF80200B4F5827F03D118208DF8030004
:1007300002E004208DF8030069460A48FFF7ACFD8B
:100740004FF4A070ADF8000010208DF803000320D6
:100750008DF8020069460348FFF79EFDFFF76AFE29
:1007600038BD00000008014010B504466FF00400D9
:10077000FFF74CFF094800680949B0FBF1F009494F
:1007800008700846007800EB4001C1EBC0104FF63E
:10079000FF7101EAC0000449088010BD0400002078
:1007A00000127A00180000201A00002070B50546DB
:1007B0004FF47A70B5FBF0F0C6B24FF47A70B5FB27
:1007C000F0F100FB115407E00D4800F01FF80D4850
:1007D00000F01CF8701EC6B2002EF5D174B1B4F54D
:1007E000FA7F05DD084800F011F8A4F5FA7084B22C
:1007F0004FF47A7104FB01F000F008F870BD0000BE
:10080000C0270900801A060020A107000146114AEE
:1008100012784A434FF0E0235A6100229A611A4647
:10082000126942F001021A6100BF4FF0E022106924
:1008300000F001021AB100F48032002AF5D04FF026
:10084000E022126922F001024FF0E0231A61002237
:100850009A6170471800002070B50446002509E031
:10086000002604E0E1B2201200F007F8761CF02E1A
:10087000F8DB6D1CF02DF3DB70BD70B505460C4642
:100880002846FFF7ADFD2046FFF7AAFD70BD00002A
:1008900010B50120764908606420FFF787FF00202B
:1008A0007449C1F8A0016420FFF780FF012070495E
:1008B00008607820FFF77AFF1120FFF77BFDC82042
:1008C000FFF774FF3620FFF775FD0020FFF788FD66
:1008D0003A20FFF76FFD0520FFF782FDB220FFF7FA
:1008E00069FD0C20FFF77CFD0C20FFF779FD00204F
:1008F000FFF776FD3320FFF773FD3320FFF770FD20
:10090000B720FFF757FD3520FFF76AFDBB20FFF743
:1009100051FD2C20FFF764FDC020FFF74BFD2C207C
:10092000FFF75EFDC220FFF745FD0120FFF758FDF0
:10093000C320FFF73FFD0B20FFF752FDC420FFF758
:1009400039FD2020FFF74CFDC620FFF733FD0F20B7
:10095000FFF746FDD020FFF72DFDA420FFF740FD57
:10096000A120FFF73DFDE020FFF724FDD020FFF799
:1009700037FD0620FFF734FD0120FFF731FD0E2083
:10098000FFF72EFD0E20FFF72BFD0820FFF728FDB7
:100990003220FFF725FD4420FFF722FD4020FFF71E
:1009A0001FFD0820FFF71CFD1020FFF719FD0F2089
:1009B000FFF716FD1520FFF713FD1920FFF710FDB7
:1009C000E120FFF7F7FCD020FFF70AFD0620FFF734
:1009D00007FD0120FFF704FD0F20FFF701FD0E20AA
:1009E000FFF7FEFC0920FFF7FBFC2F20FFF7F8FCC8
:1009F0005420FFF7F5FC4420FFF7F2FC0F20FFF72F
:100A0000EFFC1D20FFF7ECFC1A20FFF7E9FC162095
:100A1000FFF7E6FC1920FFF7E3FC2120FFF7CAFCF3
:100A20002920FFF7C7FC7820FFF7C0FE2A20FFF738
:100A3000C1FC0020FFF7D4FC0020FFF7D1FC002010
:100A4000FFF7CEFCEF20FFF7CBFC2B20FFF7B2FC2B
:100A50000020FFF7C5FC0020FFF7C2FC0020FFF7D5
:100A6000BFFCEF20FFF7BCFC2C20FFF7A3FC10BD60
:100A7000A001214200002142214800682149B0FB29
:100A8000F1F42046FFF770FEFFF726FE4FF4827068
:100A9000FFF738FEFFF7FCFE31E01B480068C0435B
:100AA0001A49C1F880010020194908604FF47840C4
:100AB000FFF7D2FE4FF47A70FFF778FE1348D0F8B4
:100AC0008001C043104908600020114908604FF4BC
:100AD000FC60FFF7C1FE4FF47A70FFF767FE0B482A
:100AE000D0F88001C0430849086000200849086028
:100AF0001F20FFF7B1FE4FF47A70FFF757FECCE7E7
:100B00000400002040420F008001214200002142E9
:100B1000000000204FF04070E1EE100A7047000026
:100B2000400B0008000000201C0000007C010008B1
:100B30005C0B00081C0000206406000098010008FF
:100B40000000000000C2EB0B0000000000000000ED
:0C0B500001020304060708090000000071
:0400000508000141AD
:00000001FF
